{
  "_format": "hh-sol-artifact-1",
  "contractName": "LumanagiPredictionV3",
  "sourceName": "contracts/Lumanagipredictionv3.sol",
  "abi": [
    {
      "inputs": [
        {
          "internalType": "address",
          "name": "_oracleAddress",
          "type": "address"
        },
        {
          "internalType": "address",
          "name": "_adminAddress",
          "type": "address"
        },
        {
          "internalType": "address",
          "name": "_operatorAddress",
          "type": "address"
        },
        {
          "internalType": "uint256",
          "name": "_intervalSeconds",
          "type": "uint256"
        },
        {
          "internalType": "uint256",
          "name": "_bufferSeconds",
          "type": "uint256"
        },
        {
          "internalType": "uint256",
          "name": "_minBetAmount",
          "type": "uint256"
        },
        {
          "internalType": "uint256",
          "name": "_oracleUpdateAllowance",
          "type": "uint256"
        },
        {
          "internalType": "uint256",
          "name": "_treasuryFee",
          "type": "uint256"
        }
      ],
      "stateMutability": "nonpayable",
      "type": "constructor"
    },
    {
      "anonymous": false,
      "inputs": [
        {
          "indexed": true,
          "internalType": "address",
          "name": "sender",
          "type": "address"
        },
        {
          "indexed": true,
          "internalType": "uint256",
          "name": "epoch",
          "type": "uint256"
        },
        {
          "indexed": false,
          "internalType": "uint256",
          "name": "amount",
          "type": "uint256"
        }
      ],
      "name": "BetBear",
      "type": "event"
    },
    {
      "anonymous": false,
      "inputs": [
        {
          "indexed": true,
          "internalType": "address",
          "name": "sender",
          "type": "address"
        },
        {
          "indexed": true,
          "internalType": "uint256",
          "name": "epoch",
          "type": "uint256"
        },
        {
          "indexed": false,
          "internalType": "uint256",
          "name": "amount",
          "type": "uint256"
        }
      ],
      "name": "BetBull",
      "type": "event"
    },
    {
      "anonymous": false,
      "inputs": [
        {
          "indexed": true,
          "internalType": "address",
          "name": "sender",
          "type": "address"
        },
        {
          "indexed": true,
          "internalType": "uint256",
          "name": "epoch",
          "type": "uint256"
        },
        {
          "indexed": false,
          "internalType": "uint256",
          "name": "amount",
          "type": "uint256"
        }
      ],
      "name": "Claim",
      "type": "event"
    },
    {
      "anonymous": false,
      "inputs": [
        {
          "indexed": true,
          "internalType": "uint256",
          "name": "epoch",
          "type": "uint256"
        },
        {
          "indexed": true,
          "internalType": "uint256",
          "name": "roundId",
          "type": "uint256"
        },
        {
          "indexed": false,
          "internalType": "int256",
          "name": "price",
          "type": "int256"
        }
      ],
      "name": "EndRound",
      "type": "event"
    },
    {
      "anonymous": false,
      "inputs": [
        {
          "indexed": true,
          "internalType": "uint256",
          "name": "epoch",
          "type": "uint256"
        },
        {
          "indexed": true,
          "internalType": "uint256",
          "name": "roundId",
          "type": "uint256"
        },
        {
          "indexed": false,
          "internalType": "int256",
          "name": "price",
          "type": "int256"
        }
      ],
      "name": "LockRound",
      "type": "event"
    },
    {
      "anonymous": false,
      "inputs": [
        {
          "indexed": false,
          "internalType": "address",
          "name": "admin",
          "type": "address"
        }
      ],
      "name": "NewAdminAddress",
      "type": "event"
    },
    {
      "anonymous": false,
      "inputs": [
        {
          "indexed": false,
          "internalType": "uint256",
          "name": "bufferSeconds",
          "type": "uint256"
        },
        {
          "indexed": false,
          "internalType": "uint256",
          "name": "intervalSeconds",
          "type": "uint256"
        }
      ],
      "name": "NewBufferAndIntervalSeconds",
      "type": "event"
    },
    {
      "anonymous": false,
      "inputs": [
        {
          "indexed": true,
          "internalType": "uint256",
          "name": "epoch",
          "type": "uint256"
        },
        {
          "indexed": false,
          "internalType": "uint256",
          "name": "minBetAmount",
          "type": "uint256"
        }
      ],
      "name": "NewMinBetAmount",
      "type": "event"
    },
    {
      "anonymous": false,
      "inputs": [
        {
          "indexed": false,
          "internalType": "address",
          "name": "operator",
          "type": "address"
        }
      ],
      "name": "NewOperatorAddress",
      "type": "event"
    },
    {
      "anonymous": false,
      "inputs": [
        {
          "indexed": false,
          "internalType": "address",
          "name": "oracle",
          "type": "address"
        }
      ],
      "name": "NewOracle",
      "type": "event"
    },
    {
      "anonymous": false,
      "inputs": [
        {
          "indexed": false,
          "internalType": "uint256",
          "name": "oracleUpdateAllowance",
          "type": "uint256"
        }
      ],
      "name": "NewOracleUpdateAllowance",
      "type": "event"
    },
    {
      "anonymous": false,
      "inputs": [
        {
          "indexed": true,
          "internalType": "uint256",
          "name": "epoch",
          "type": "uint256"
        },
        {
          "indexed": false,
          "internalType": "uint256",
          "name": "treasuryFee",
          "type": "uint256"
        }
      ],
      "name": "NewTreasuryFee",
      "type": "event"
    },
    {
      "anonymous": false,
      "inputs": [
        {
          "indexed": true,
          "internalType": "address",
          "name": "previousOwner",
          "type": "address"
        },
        {
          "indexed": true,
          "internalType": "address",
          "name": "newOwner",
          "type": "address"
        }
      ],
      "name": "OwnershipTransferred",
      "type": "event"
    },
    {
      "anonymous": false,
      "inputs": [
        {
          "indexed": true,
          "internalType": "uint256",
          "name": "epoch",
          "type": "uint256"
        }
      ],
      "name": "Pause",
      "type": "event"
    },
    {
      "anonymous": false,
      "inputs": [
        {
          "indexed": false,
          "internalType": "address",
          "name": "account",
          "type": "address"
        }
      ],
      "name": "Paused",
      "type": "event"
    },
    {
      "anonymous": false,
      "inputs": [
        {
          "indexed": false,
          "internalType": "uint256",
          "name": "newFee",
          "type": "uint256"
        }
      ],
      "name": "PlatformFeeUpdated",
      "type": "event"
    },
    {
      "anonymous": false,
      "inputs": [
        {
          "indexed": false,
          "internalType": "uint256",
          "name": "amount",
          "type": "uint256"
        }
      ],
      "name": "PlatformFeesWithdrawn",
      "type": "event"
    },
    {
      "anonymous": false,
      "inputs": [
        {
          "indexed": true,
          "internalType": "uint256",
          "name": "epoch",
          "type": "uint256"
        },
        {
          "indexed": false,
          "internalType": "uint256",
          "name": "rewardBaseCalAmount",
          "type": "uint256"
        },
        {
          "indexed": false,
          "internalType": "uint256",
          "name": "rewardAmount",
          "type": "uint256"
        },
        {
          "indexed": false,
          "internalType": "uint256",
          "name": "treasuryAmount",
          "type": "uint256"
        }
      ],
      "name": "RewardsCalculated",
      "type": "event"
    },
    {
      "anonymous": false,
      "inputs": [
        {
          "indexed": true,
          "internalType": "uint256",
          "name": "epoch",
          "type": "uint256"
        }
      ],
      "name": "StartRound",
      "type": "event"
    },
    {
      "anonymous": false,
      "inputs": [
        {
          "indexed": true,
          "internalType": "address",
          "name": "token",
          "type": "address"
        },
        {
          "indexed": false,
          "internalType": "uint256",
          "name": "amount",
          "type": "uint256"
        }
      ],
      "name": "TokenRecovery",
      "type": "event"
    },
    {
      "anonymous": false,
      "inputs": [
        {
          "indexed": false,
          "internalType": "uint256",
          "name": "amount",
          "type": "uint256"
        }
      ],
      "name": "TreasuryClaim",
      "type": "event"
    },
    {
      "anonymous": false,
      "inputs": [
        {
          "indexed": true,
          "internalType": "uint256",
          "name": "epoch",
          "type": "uint256"
        }
      ],
      "name": "Unpause",
      "type": "event"
    },
    {
      "anonymous": false,
      "inputs": [
        {
          "indexed": false,
          "internalType": "address",
          "name": "account",
          "type": "address"
        }
      ],
      "name": "Unpaused",
      "type": "event"
    },
    {
      "inputs": [],
      "name": "MAX_TREASURY_FEE",
      "outputs": [
        {
          "internalType": "uint256",
          "name": "",
          "type": "uint256"
        }
      ],
      "stateMutability": "view",
      "type": "function"
    },
    {
      "inputs": [],
      "name": "_nextGenesisLockOnceExecuteTimeStamp",
      "outputs": [
        {
          "internalType": "uint256",
          "name": "",
          "type": "uint256"
        }
      ],
      "stateMutability": "view",
      "type": "function"
    },
    {
      "inputs": [],
      "name": "adminAddress",
      "outputs": [
        {
          "internalType": "address",
          "name": "",
          "type": "address"
        }
      ],
      "stateMutability": "view",
      "type": "function"
    },
    {
      "inputs": [
        {
          "internalType": "uint256",
          "name": "epoch",
          "type": "uint256"
        }
      ],
      "name": "betBear",
      "outputs": [],
      "stateMutability": "payable",
      "type": "function"
    },
    {
      "inputs": [
        {
          "internalType": "uint256",
          "name": "epoch",
          "type": "uint256"
        }
      ],
      "name": "betBull",
      "outputs": [],
      "stateMutability": "payable",
      "type": "function"
    },
    {
      "inputs": [],
      "name": "bufferSeconds",
      "outputs": [
        {
          "internalType": "uint256",
          "name": "",
          "type": "uint256"
        }
      ],
      "stateMutability": "view",
      "type": "function"
    },
    {
      "inputs": [
        {
          "internalType": "bytes",
          "name": "",
          "type": "bytes"
        }
      ],
      "name": "checkUpkeep",
      "outputs": [
        {
          "internalType": "bool",
          "name": "upkeepNeeded",
          "type": "bool"
        },
        {
          "internalType": "bytes",
          "name": "performData",
          "type": "bytes"
        }
      ],
      "stateMutability": "view",
      "type": "function"
    },
    {
      "inputs": [
        {
          "internalType": "uint256[]",
          "name": "epochs",
          "type": "uint256[]"
        }
      ],
      "name": "claim",
      "outputs": [],
      "stateMutability": "nonpayable",
      "type": "function"
    },
    {
      "inputs": [],
      "name": "claimTreasury",
      "outputs": [],
      "stateMutability": "nonpayable",
      "type": "function"
    },
    {
      "inputs": [
        {
          "internalType": "uint256",
          "name": "epoch",
          "type": "uint256"
        },
        {
          "internalType": "address",
          "name": "user",
          "type": "address"
        }
      ],
      "name": "claimable",
      "outputs": [
        {
          "internalType": "bool",
          "name": "",
          "type": "bool"
        }
      ],
      "stateMutability": "view",
      "type": "function"
    },
    {
      "inputs": [],
      "name": "currentEpoch",
      "outputs": [
        {
          "internalType": "uint256",
          "name": "",
          "type": "uint256"
        }
      ],
      "stateMutability": "view",
      "type": "function"
    },
    {
      "inputs": [],
      "name": "genesisLockOnce",
      "outputs": [
        {
          "internalType": "bool",
          "name": "",
          "type": "bool"
        }
      ],
      "stateMutability": "view",
      "type": "function"
    },
    {
      "inputs": [],
      "name": "genesisLockRound",
      "outputs": [],
      "stateMutability": "nonpayable",
      "type": "function"
    },
    {
      "inputs": [],
      "name": "genesisStartOnce",
      "outputs": [
        {
          "internalType": "bool",
          "name": "",
          "type": "bool"
        }
      ],
      "stateMutability": "view",
      "type": "function"
    },
    {
      "inputs": [],
      "name": "genesisStartRound",
      "outputs": [],
      "stateMutability": "nonpayable",
      "type": "function"
    },
    {
      "inputs": [
        {
          "internalType": "address",
          "name": "user",
          "type": "address"
        },
        {
          "internalType": "uint256",
          "name": "cursor",
          "type": "uint256"
        },
        {
          "internalType": "uint256",
          "name": "size",
          "type": "uint256"
        }
      ],
      "name": "getUserRounds",
      "outputs": [
        {
          "internalType": "uint256[]",
          "name": "",
          "type": "uint256[]"
        },
        {
          "components": [
            {
              "internalType": "enum LumanagiPredictionV3.Position",
              "name": "position",
              "type": "uint8"
            },
            {
              "internalType": "uint256",
              "name": "amount",
              "type": "uint256"
            },
            {
              "internalType": "bool",
              "name": "claimed",
              "type": "bool"
            }
          ],
          "internalType": "struct LumanagiPredictionV3.BetInfo[]",
          "name": "",
          "type": "tuple[]"
        },
        {
          "internalType": "uint256",
          "name": "",
          "type": "uint256"
        }
      ],
      "stateMutability": "view",
      "type": "function"
    },
    {
      "inputs": [
        {
          "internalType": "address",
          "name": "user",
          "type": "address"
        }
      ],
      "name": "getUserRoundsLength",
      "outputs": [
        {
          "internalType": "uint256",
          "name": "",
          "type": "uint256"
        }
      ],
      "stateMutability": "view",
      "type": "function"
    },
    {
      "inputs": [],
      "name": "intervalSeconds",
      "outputs": [
        {
          "internalType": "uint256",
          "name": "",
          "type": "uint256"
        }
      ],
      "stateMutability": "view",
      "type": "function"
    },
    {
      "inputs": [
        {
          "internalType": "uint256",
          "name": "",
          "type": "uint256"
        },
        {
          "internalType": "address",
          "name": "",
          "type": "address"
        }
      ],
      "name": "ledger",
      "outputs": [
        {
          "internalType": "enum LumanagiPredictionV3.Position",
          "name": "position",
          "type": "uint8"
        },
        {
          "internalType": "uint256",
          "name": "amount",
          "type": "uint256"
        },
        {
          "internalType": "bool",
          "name": "claimed",
          "type": "bool"
        }
      ],
      "stateMutability": "view",
      "type": "function"
    },
    {
      "inputs": [],
      "name": "minBetAmount",
      "outputs": [
        {
          "internalType": "uint256",
          "name": "",
          "type": "uint256"
        }
      ],
      "stateMutability": "view",
      "type": "function"
    },
    {
      "inputs": [],
      "name": "needGenesisLock",
      "outputs": [
        {
          "internalType": "bool",
          "name": "",
          "type": "bool"
        }
      ],
      "stateMutability": "view",
      "type": "function"
    },
    {
      "inputs": [],
      "name": "operatorAddress",
      "outputs": [
        {
          "internalType": "address",
          "name": "",
          "type": "address"
        }
      ],
      "stateMutability": "view",
      "type": "function"
    },
    {
      "inputs": [],
      "name": "oracle",
      "outputs": [
        {
          "internalType": "contract AggregatorV3Interface",
          "name": "",
          "type": "address"
        }
      ],
      "stateMutability": "view",
      "type": "function"
    },
    {
      "inputs": [],
      "name": "oracleLatestRoundId",
      "outputs": [
        {
          "internalType": "uint256",
          "name": "",
          "type": "uint256"
        }
      ],
      "stateMutability": "view",
      "type": "function"
    },
    {
      "inputs": [],
      "name": "oracleUpdateAllowance",
      "outputs": [
        {
          "internalType": "uint256",
          "name": "",
          "type": "uint256"
        }
      ],
      "stateMutability": "view",
      "type": "function"
    },
    {
      "inputs": [],
      "name": "owner",
      "outputs": [
        {
          "internalType": "address",
          "name": "",
          "type": "address"
        }
      ],
      "stateMutability": "view",
      "type": "function"
    },
    {
      "inputs": [],
      "name": "pause",
      "outputs": [],
      "stateMutability": "nonpayable",
      "type": "function"
    },
    {
      "inputs": [],
      "name": "paused",
      "outputs": [
        {
          "internalType": "bool",
          "name": "",
          "type": "bool"
        }
      ],
      "stateMutability": "view",
      "type": "function"
    },
    {
      "inputs": [
        {
          "internalType": "bytes",
          "name": "",
          "type": "bytes"
        }
      ],
      "name": "performUpkeep",
      "outputs": [],
      "stateMutability": "nonpayable",
      "type": "function"
    },
    {
      "inputs": [],
      "name": "platformFee",
      "outputs": [
        {
          "internalType": "uint256",
          "name": "",
          "type": "uint256"
        }
      ],
      "stateMutability": "view",
      "type": "function"
    },
    {
      "inputs": [],
      "name": "platformFeeAmount",
      "outputs": [
        {
          "internalType": "uint256",
          "name": "",
          "type": "uint256"
        }
      ],
      "stateMutability": "view",
      "type": "function"
    },
    {
      "inputs": [
        {
          "internalType": "address",
          "name": "_token",
          "type": "address"
        },
        {
          "internalType": "uint256",
          "name": "_amount",
          "type": "uint256"
        }
      ],
      "name": "recoverToken",
      "outputs": [],
      "stateMutability": "nonpayable",
      "type": "function"
    },
    {
      "inputs": [
        {
          "internalType": "uint256",
          "name": "epoch",
          "type": "uint256"
        },
        {
          "internalType": "address",
          "name": "user",
          "type": "address"
        }
      ],
      "name": "refundable",
      "outputs": [
        {
          "internalType": "bool",
          "name": "",
          "type": "bool"
        }
      ],
      "stateMutability": "view",
      "type": "function"
    },
    {
      "inputs": [],
      "name": "renounceOwnership",
      "outputs": [],
      "stateMutability": "nonpayable",
      "type": "function"
    },
    {
      "inputs": [
        {
          "internalType": "uint256",
          "name": "",
          "type": "uint256"
        }
      ],
      "name": "rounds",
      "outputs": [
        {
          "internalType": "uint256",
          "name": "epoch",
          "type": "uint256"
        },
        {
          "internalType": "uint256",
          "name": "startTimestamp",
          "type": "uint256"
        },
        {
          "internalType": "uint256",
          "name": "lockTimestamp",
          "type": "uint256"
        },
        {
          "internalType": "uint256",
          "name": "closeTimestamp",
          "type": "uint256"
        },
        {
          "internalType": "int256",
          "name": "lockPrice",
          "type": "int256"
        },
        {
          "internalType": "int256",
          "name": "closePrice",
          "type": "int256"
        },
        {
          "internalType": "uint256",
          "name": "lockOracleId",
          "type": "uint256"
        },
        {
          "internalType": "uint256",
          "name": "closeOracleId",
          "type": "uint256"
        },
        {
          "internalType": "uint256",
          "name": "totalAmount",
          "type": "uint256"
        },
        {
          "internalType": "uint256",
          "name": "bullAmount",
          "type": "uint256"
        },
        {
          "internalType": "uint256",
          "name": "bearAmount",
          "type": "uint256"
        },
        {
          "internalType": "uint256",
          "name": "rewardBaseCalAmount",
          "type": "uint256"
        },
        {
          "internalType": "uint256",
          "name": "rewardAmount",
          "type": "uint256"
        },
        {
          "internalType": "bool",
          "name": "oracleCalled",
          "type": "bool"
        }
      ],
      "stateMutability": "view",
      "type": "function"
    },
    {
      "inputs": [
        {
          "internalType": "address",
          "name": "_adminAddress",
          "type": "address"
        }
      ],
      "name": "setAdmin",
      "outputs": [],
      "stateMutability": "nonpayable",
      "type": "function"
    },
    {
      "inputs": [
        {
          "internalType": "uint256",
          "name": "_bufferSeconds",
          "type": "uint256"
        },
        {
          "internalType": "uint256",
          "name": "_intervalSeconds",
          "type": "uint256"
        }
      ],
      "name": "setBufferAndIntervalSeconds",
      "outputs": [],
      "stateMutability": "nonpayable",
      "type": "function"
    },
    {
      "inputs": [
        {
          "internalType": "uint256",
          "name": "_minBetAmount",
          "type": "uint256"
        }
      ],
      "name": "setMinBetAmount",
      "outputs": [],
      "stateMutability": "nonpayable",
      "type": "function"
    },
    {
      "inputs": [
        {
          "internalType": "address",
          "name": "_operatorAddress",
          "type": "address"
        }
      ],
      "name": "setOperator",
      "outputs": [],
      "stateMutability": "nonpayable",
      "type": "function"
    },
    {
      "inputs": [
        {
          "internalType": "address",
          "name": "_oracle",
          "type": "address"
        }
      ],
      "name": "setOracle",
      "outputs": [],
      "stateMutability": "nonpayable",
      "type": "function"
    },
    {
      "inputs": [
        {
          "internalType": "uint256",
          "name": "_oracleUpdateAllowance",
          "type": "uint256"
        }
      ],
      "name": "setOracleUpdateAllowance",
      "outputs": [],
      "stateMutability": "nonpayable",
      "type": "function"
    },
    {
      "inputs": [
        {
          "internalType": "uint256",
          "name": "_platformFee",
          "type": "uint256"
        }
      ],
      "name": "setPlatformFee",
      "outputs": [],
      "stateMutability": "nonpayable",
      "type": "function"
    },
    {
      "inputs": [
        {
          "internalType": "uint256",
          "name": "_treasuryFee",
          "type": "uint256"
        }
      ],
      "name": "setTreasuryFee",
      "outputs": [],
      "stateMutability": "nonpayable",
      "type": "function"
    },
    {
      "inputs": [
        {
          "internalType": "address",
          "name": "newOwner",
          "type": "address"
        }
      ],
      "name": "transferOwnership",
      "outputs": [],
      "stateMutability": "nonpayable",
      "type": "function"
    },
    {
      "inputs": [],
      "name": "treasuryAmount",
      "outputs": [
        {
          "internalType": "uint256",
          "name": "",
          "type": "uint256"
        }
      ],
      "stateMutability": "view",
      "type": "function"
    },
    {
      "inputs": [],
      "name": "treasuryFee",
      "outputs": [
        {
          "internalType": "uint256",
          "name": "",
          "type": "uint256"
        }
      ],
      "stateMutability": "view",
      "type": "function"
    },
    {
      "inputs": [],
      "name": "unpause",
      "outputs": [],
      "stateMutability": "nonpayable",
      "type": "function"
    },
    {
      "inputs": [
        {
          "internalType": "address",
          "name": "",
          "type": "address"
        },
        {
          "internalType": "uint256",
          "name": "",
          "type": "uint256"
        }
      ],
      "name": "userRounds",
      "outputs": [
        {
          "internalType": "uint256",
          "name": "",
          "type": "uint256"
        }
      ],
      "stateMutability": "view",
      "type": "function"
    },
    {
      "inputs": [],
      "name": "withdrawPlatformFees",
      "outputs": [],
      "stateMutability": "nonpayable",
      "type": "function"
    }
  ],
  "bytecode": "0x60806040526002805462ffffff60a01b191690556101f4600e553480156200002657600080fd5b50604051620041ff380380620041ff833981016040819052620000499162000185565b620000543362000118565b6000805460ff60a01b19169055600180556103e8811115620000bc5760405162461bcd60e51b815260206004820152601560248201527f54726561737572792066656520746f6f20686967680000000000000000000000604482015260640160405180910390fd5b600280546001600160a01b03199081166001600160a01b039a8b1617909155600480548216988a1698909817909755600580549097169590971694909417909455600791909155600655600891909155600d5560095562000200565b600080546001600160a01b038381166001600160a01b0319831681178455604051919092169283917f8be0079c531659141344cd1fd0a4f28419497f9722a3daafe3b4186f6b6457e09190a35050565b80516001600160a01b03811681146200018057600080fd5b919050565b600080600080600080600080610100898b031215620001a357600080fd5b620001ae8962000168565b9750620001be60208a0162000168565b9650620001ce60408a0162000168565b9550606089015194506080890151935060a0890151925060c0890151915060e089015190509295985092959890939650565b613fef80620002106000396000f3fe60806040526004361061031d5760003560e01c80637dc0d1d0116101a5578063bd74c046116100ec578063eaba236111610095578063f2fde38b1161006f578063f2fde38b1461097f578063f7fdec281461099f578063fa968eea146109c0578063fc6f9468146109d657600080fd5b8063eaba23611461093d578063ec32470314610953578063f2b3c8091461096957600080fd5b8063d0b7830b116100c6578063d0b7830b146108f3578063d9d55eac14610908578063dd1f75961461091d57600080fd5b8063bd74c046146108a7578063cc32d176146108bd578063cf2f5039146108d357600080fd5b8063951fd6001161014e578063b169d45a11610128578063b169d45a14610833578063b29a814014610867578063b3ab15fb1461088757600080fd5b8063951fd600146107d1578063a0c7f71c14610800578063aa6b873a1461082057600080fd5b80638c65c81f1161017f5780638c65c81f146106a85780638da5cb5b1461079d57806393a88b18146107bb57600080fd5b80637dc0d1d0146106535780638456cb5914610673578063890dc7661461068857600080fd5b806360554011116102695780637285c58b116102125780637adbf973116101ec5780637adbf973146105fd5780637bf412541461061d5780637d1cd04f1461063d57600080fd5b80637285c58b1461056c57806376671808146105c757806377e741c7146105dd57600080fd5b80636e04ff0d116102435780636e04ff0d14610509578063704b6c0214610537578063715018a61461055757600080fd5b806360554011146104b35780636ba4c138146104c95780636c188593146104e957600080fd5b8063368acb09116102cb5780634585e33b116102a55780634585e33b1461046157806357fb096f146104815780635c975abb1461049457600080fd5b8063368acb09146104215780633f4ba83a14610437578063452fd75a1461044c57600080fd5b806312e8e2c3116102fc57806312e8e2c3146103a757806326232a2e146103c7578063273867d4146103eb57600080fd5b80623bdc74146103225780630f74174f14610339578063127effb21461036f575b600080fd5b34801561032e57600080fd5b506103376109f6565b005b34801561034557600080fd5b5060025461035a90600160a01b900460ff1681565b60405190151581526020015b60405180910390f35b34801561037b57600080fd5b5060055461038f906001600160a01b031681565b6040516001600160a01b039091168152602001610366565b3480156103b357600080fd5b506103376103c2366004613ac6565b610aa8565b3480156103d357600080fd5b506103dd600e5481565b604051908152602001610366565b3480156103f757600080fd5b506103dd610406366004613afb565b6001600160a01b031660009081526012602052604090205490565b34801561042d57600080fd5b506103dd600a5481565b34801561044357600080fd5b50610337610b7c565b34801561045857600080fd5b50610337610c28565b34801561046d57600080fd5b5061033761047c366004613b1d565b610da7565b61033761048f366004613ac6565b610dc0565b3480156104a057600080fd5b50600054600160a01b900460ff1661035a565b3480156104bf57600080fd5b506103dd600d5481565b3480156104d557600080fd5b506103376104e4366004613b8f565b6110b8565b3480156104f557600080fd5b50610337610504366004613ac6565b611186565b34801561051557600080fd5b50610529610524366004613b1d565b611260565b604051610366929190613c6c565b34801561054357600080fd5b50610337610552366004613afb565b6112ab565b34801561056357600080fd5b50610337611364565b34801561057857600080fd5b506105b8610587366004613c87565b601060209081526000928352604080842090915290825290208054600182015460029092015460ff91821692911683565b60405161036693929190613ceb565b3480156105d357600080fd5b506103dd600b5481565b3480156105e957600080fd5b506103376105f8366004613ac6565b611376565b34801561060957600080fd5b50610337610618366004613afb565b61144e565b34801561062957600080fd5b5061035a610638366004613c87565b6115e9565b34801561064957600080fd5b506103dd60075481565b34801561065f57600080fd5b5060025461038f906001600160a01b031681565b34801561067f57600080fd5b50610337611759565b34801561069457600080fd5b506103376106a3366004613d0f565b611806565b3480156106b457600080fd5b506107336106c3366004613ac6565b601160205260009081526040902080546001820154600283015460038401546004850154600586015460068701546007880154600889015460098a0154600a8b0154600b8c0154600c8d0154600d909d01549b9c9a9b999a98999798969795969495939492939192909160ff168e565b604080519e8f5260208f019d909d529b8d019a909a5260608c019890985260808b019690965260a08a019490945260c089019290925260e088015261010087015261012086015261014085015261016084015261018083015215156101a08201526101c001610366565b3480156107a957600080fd5b506000546001600160a01b031661038f565b3480156107c757600080fd5b506103dd60035481565b3480156107dd57600080fd5b506107f16107ec366004613d31565b611910565b60405161036693929190613d64565b34801561080c57600080fd5b5061035a61081b366004613c87565b611b67565b61033761082e366004613ac6565b611d2f565b34801561083f57600080fd5b5060025461035a90760100000000000000000000000000000000000000000000900460ff1681565b34801561087357600080fd5b50610337610882366004613e07565b612017565b34801561089357600080fd5b506103376108a2366004613afb565b61207a565b3480156108b357600080fd5b506103dd600f5481565b3480156108c957600080fd5b506103dd60095481565b3480156108df57600080fd5b506103376108ee366004613ac6565b612171565b3480156108ff57600080fd5b506103376121f4565b34801561091457600080fd5b50610337612291565b34801561092957600080fd5b506103dd610938366004613e07565b61247b565b34801561094957600080fd5b506103dd60065481565b34801561095f57600080fd5b506103dd600c5481565b34801561097557600080fd5b506103dd6103e881565b34801561098b57600080fd5b5061033761099a366004613afb565b6124ac565b3480156109ab57600080fd5b5060025461035a90600160a81b900460ff1681565b3480156109cc57600080fd5b506103dd60085481565b3480156109e257600080fd5b5060045461038f906001600160a01b031681565b6109fe612539565b6004546001600160a01b03163314610a495760405162461bcd60e51b81526020600482015260096024820152682737ba1030b236b4b760b91b60448201526064015b60405180910390fd5b600a80546000909155600454610a68906001600160a01b031682612593565b6040518181527fb9197c6b8e21274bd1e2d9c956a88af5cfee510f630fab3f046300f88b422361906020015b60405180910390a150610aa660018055565b565b6004546001600160a01b03163314610aee5760405162461bcd60e51b81526020600482015260096024820152682737ba1030b236b4b760b91b6044820152606401610a40565b6103e8811115610b405760405162461bcd60e51b815260206004820152601e60248201527f506c6174666f726d206665652063616e6e6f74206578636565642031302500006044820152606401610a40565b600e8190556040518181527f45610d581145924dd7090a5017e5f2b1d6f42213bb2e95707ff86846bbfcb1ca906020015b60405180910390a150565b610b84612661565b6004546001600160a01b03163314610bca5760405162461bcd60e51b81526020600482015260096024820152682737ba1030b236b4b760b91b6044820152606401610a40565b600280547fffffffffffffffffff000000ffffffffffffffffffffffffffffffffffffffff169055610bfa6126ba565b600b546040517faaa520fdd7d2c83061d632fa017b0432407e798818af63ea908589fceda39ab790600090a2565b610c3061272a565b6005546001600160a01b03163314610c8a5760405162461bcd60e51b815260206004820152600c60248201527f4e6f74206f70657261746f7200000000000000000000000000000000000000006044820152606401610a40565b600254600160a81b900460ff1615610d0a5760405162461bcd60e51b815260206004820152602360248201527f43616e206f6e6c792072756e2067656e657369735374617274526f756e64206f60448201527f6e636500000000000000000000000000000000000000000000000000000000006064820152608401610a40565b600b54610d18906001613e47565b600b819055610d2690612784565b600280547fffffffffffffffffffff00ffffffffffffffffffffffffffffffffffffffffff16600160a81b179055600754610d619042613e47565b600355600280547fffffffffffffffffff00ffffffffffffffffffffffffffffffffffffffffffff16760100000000000000000000000000000000000000000000179055565b610daf612802565b15610dbc57610dbc612852565b5050565b610dc861272a565b610dd0612539565b333b15610e1f5760405162461bcd60e51b815260206004820152601460248201527f436f6e7472616374206e6f7420616c6c6f7765640000000000000000000000006044820152606401610a40565b333214610e6e5760405162461bcd60e51b815260206004820152601a60248201527f50726f787920636f6e7472616374206e6f7420616c6c6f7765640000000000006044820152606401610a40565b600b548114610ebf5760405162461bcd60e51b815260206004820152601560248201527f42657420697320746f6f206561726c792f6c61746500000000000000000000006044820152606401610a40565b610ec88161299f565b610f145760405162461bcd60e51b815260206004820152601260248201527f526f756e64206e6f74206265747461626c6500000000000000000000000000006044820152606401610a40565b600854341015610f8c5760405162461bcd60e51b815260206004820152602c60248201527f42657420616d6f756e74206d7573742062652067726561746572207468616e2060448201527f6d696e426574416d6f756e7400000000000000000000000000000000000000006064820152608401610a40565b600081815260106020908152604080832033845290915290206001015415610ff65760405162461bcd60e51b815260206004820152601b60248201527f43616e206f6e6c7920626574206f6e63652070657220726f756e6400000000006044820152606401610a40565b60008181526011602052604090206008810154349190611017908390613e47565b6008820155600981015461102c908390613e47565b6009820155600083815260106020908152604080832033808552908352818420805460ff1916815560018082018890556012855283862080549182018155865294849020909401879055905185815286927f438122d8cff518d18388099a5181f0d17a12b4f1b55faedf6e4a6acee0060c1291015b60405180910390a35050506110b560018055565b50565b6110c0612539565b333b1561110f5760405162461bcd60e51b815260206004820152601460248201527f436f6e7472616374206e6f7420616c6c6f7765640000000000000000000000006044820152606401610a40565b33321461115e5760405162461bcd60e51b815260206004820152601a60248201527f50726f787920636f6e7472616374206e6f7420616c6c6f7765640000000000006044820152606401610a40565b600061116a8383612a0a565b9050801561117c5761117c3382612593565b50610dbc60018055565b61118e612661565b6004546001600160a01b031633146111d45760405162461bcd60e51b81526020600482015260096024820152682737ba1030b236b4b760b91b6044820152606401610a40565b806112215760405162461bcd60e51b815260206004820152601560248201527f4d757374206265207375706572696f7220746f203000000000000000000000006044820152606401610a40565b6008819055600b546040518281527f90eb87c560a0213754ceb3a7fa3012f01acab0a35602c1e1995adf69dabc9d50906020015b60405180910390a250565b6000606061126c612802565b60408051808201909152600381527f30783000000000000000000000000000000000000000000000000000000000006020820152909590945092505050565b6112b3612a5e565b6001600160a01b0381166113095760405162461bcd60e51b815260206004820152601660248201527f43616e6e6f74206265207a65726f2061646472657373000000000000000000006044820152606401610a40565b6004805473ffffffffffffffffffffffffffffffffffffffff19166001600160a01b0383169081179091556040519081527f137b621413925496477d46e5055ac0d56178bdd724ba8bf843afceef18268ba390602001610b71565b61136c612a5e565b610aa66000612ab8565b61137e612661565b6004546001600160a01b031633146113c45760405162461bcd60e51b81526020600482015260096024820152682737ba1030b236b4b760b91b6044820152606401610a40565b6103e88111156114165760405162461bcd60e51b815260206004820152601560248201527f54726561737572792066656520746f6f206869676800000000000000000000006044820152606401610a40565b6009819055600b546040518281527fb1c4ee38d35556741133da7ff9b6f7ab0fa88d0406133126ff128f635490a85790602001611255565b611456612661565b6004546001600160a01b0316331461149c5760405162461bcd60e51b81526020600482015260096024820152682737ba1030b236b4b760b91b6044820152606401610a40565b6001600160a01b0381166114f25760405162461bcd60e51b815260206004820152601660248201527f43616e6e6f74206265207a65726f2061646472657373000000000000000000006044820152606401610a40565b6000600c556002805473ffffffffffffffffffffffffffffffffffffffff19166001600160a01b038316908117909155604080517ffeaf968c000000000000000000000000000000000000000000000000000000008152905163feaf968c9160048082019260a092909190829003018186803b15801561157157600080fd5b505afa158015611585573d6000803e3d6000fd5b505050506040513d601f19601f820116820180604052508101906115a99190613e79565b50506040516001600160a01b03851681527fb3eacd0e351fafdfefdec84e1cd19679b38dbcd63ea7c2c24da17fd2bc3b3c0e93506020019150610b719050565b60008281526010602090815260408083206001600160a01b0385168452909152808220815160608101909252805483929190829060ff16600181111561163157611631613cb3565b600181111561164257611642613cb3565b815260018281015460208084019190915260029384015460ff908116151560409485015260008a81526011835284902084516101c08101865281548152938101549284019290925293810154928201929092526003820154606082015260048201546080820152600582015460a0820152600682015460c0820152600782015460e082015260088201546101008201526009820154610120820152600a820154610140820152600b820154610160820152600c820154610180820152600d909101549091161580156101a08301819052929350909161172357508160400151155b801561173f5750600654816060015161173c9190613e47565b42115b801561174e5750602082015115155b925050505b92915050565b61176161272a565b6004546001600160a01b031633148061178457506005546001600160a01b031633145b6117d05760405162461bcd60e51b815260206004820152601260248201527f4e6f74206f70657261746f722f61646d696e00000000000000000000000000006044820152606401610a40565b6117d8612b15565b600b546040517f68b095021b1f40fe513109f513c66692f0b3219aee674a69f4efc57badb8201d90600090a2565b61180e612661565b6004546001600160a01b031633146118545760405162461bcd60e51b81526020600482015260096024820152682737ba1030b236b4b760b91b6044820152606401610a40565b8082106118c95760405162461bcd60e51b815260206004820152603160248201527f6275666665725365636f6e6473206d75737420626520696e666572696f72207460448201527f6f20696e74657276616c5365636f6e64730000000000000000000000000000006064820152608401610a40565b6006829055600781905560408051838152602081018390527fe60149e0431fec12df63dfab5fce2a9cefe9a4d3df5f41cb626f579ae1f2b91a910160405180910390a15050565b6001600160a01b0383166000908152601260205260408120546060918291849061193b908790613ec9565b811115611969576001600160a01b038716600090815260126020526040902054611966908790613ec9565b90505b60008167ffffffffffffffff81111561198457611984613ee0565b6040519080825280602002602001820160405280156119ad578160200160208202803683370190505b50905060008267ffffffffffffffff8111156119cb576119cb613ee0565b604051908082528060200260200182016040528015611a1657816020015b60408051606081018252600080825260208083018290529282015282526000199092019101816119e95790505b50905060005b83811015611b48576001600160a01b038a166000908152601260205260409020611a46828b613e47565b81548110611a5657611a56613ef6565b9060005260206000200154838281518110611a7357611a73613ef6565b60200260200101818152505060106000848381518110611a9557611a95613ef6565b602090810291909101810151825281810192909252604090810160009081206001600160a01b038e168252909252908190208151606081019092528054829060ff166001811115611ae857611ae8613cb3565b6001811115611af957611af9613cb3565b81526001820154602082015260029091015460ff1615156040909101528251839083908110611b2a57611b2a613ef6565b60200260200101819052508080611b4090613f0c565b915050611a1c565b508181611b55858b613e47565b95509550955050505093509350939050565b60008281526010602090815260408083206001600160a01b0385168452909152808220815160608101909252805483929190829060ff166001811115611baf57611baf613cb3565b6001811115611bc057611bc0613cb3565b815260018281015460208084019190915260029384015460ff908116151560409485015260008a81526011835284902084516101c081018652815481529381015492840192909252938101549282019290925260038201546060820152600482015460808201819052600583015460a08301819052600684015460c0840152600784015460e084015260088401546101008401526009840154610120840152600a840154610140840152600b840154610160840152600c840154610180840152600d9093015490931615156101a08201529293501415611ca557600092505050611753565b806101a001518015611cba5750602082015115155b8015611cc857508160400151155b801561174e575080608001518160a00151138015611cf85750600082516001811115611cf657611cf6613cb3565b145b8061174e575080608001518160a0015112801561174e5750600182516001811115611d2557611d25613cb3565b1495945050505050565b611d3761272a565b611d3f612539565b333b15611d8e5760405162461bcd60e51b815260206004820152601460248201527f436f6e7472616374206e6f7420616c6c6f7765640000000000000000000000006044820152606401610a40565b333214611ddd5760405162461bcd60e51b815260206004820152601a60248201527f50726f787920636f6e7472616374206e6f7420616c6c6f7765640000000000006044820152606401610a40565b600b548114611e2e5760405162461bcd60e51b815260206004820152601560248201527f42657420697320746f6f206561726c792f6c61746500000000000000000000006044820152606401610a40565b611e378161299f565b611e835760405162461bcd60e51b815260206004820152601260248201527f526f756e64206e6f74206265747461626c6500000000000000000000000000006044820152606401610a40565b600854341015611efb5760405162461bcd60e51b815260206004820152602c60248201527f42657420616d6f756e74206d7573742062652067726561746572207468616e2060448201527f6d696e426574416d6f756e7400000000000000000000000000000000000000006064820152608401610a40565b600081815260106020908152604080832033845290915290206001015415611f655760405162461bcd60e51b815260206004820152601b60248201527f43616e206f6e6c7920626574206f6e63652070657220726f756e6400000000006044820152606401610a40565b60008181526011602052604090206008810154349190611f86908390613e47565b6008820155600a810154611f9b908390613e47565b600a820155600083815260106020908152604080832033808552908352818420805460ff1916600190811782558082018890556012855283862080549182018155865294849020909401879055905185815286927f0d8c1fe3e67ab767116a81f122b83c2557a8c2564019cb7c4f83de1aeb1f1f0d91016110a1565b61201f612a5e565b6120336001600160a01b0383163383612b73565b816001600160a01b03167f14f11966a996e0629572e51064726d2057a80fbd34efc066682c06a71dbb6e988260405161206e91815260200190565b60405180910390a25050565b6004546001600160a01b031633146120c05760405162461bcd60e51b81526020600482015260096024820152682737ba1030b236b4b760b91b6044820152606401610a40565b6001600160a01b0381166121165760405162461bcd60e51b815260206004820152601660248201527f43616e6e6f74206265207a65726f2061646472657373000000000000000000006044820152606401610a40565b6005805473ffffffffffffffffffffffffffffffffffffffff19166001600160a01b0383169081179091556040519081527fc47d127c07bdd56c5ccba00463ce3bd3c1bca71b4670eea6e5d0c02e4aa156e290602001610b71565b612179612661565b6004546001600160a01b031633146121bf5760405162461bcd60e51b81526020600482015260096024820152682737ba1030b236b4b760b91b6044820152606401610a40565b600d8190556040518181527f93ccaceac092ffb842c46b8718667a13a80e9058dcd0bd403d0b47215b30da0790602001610b71565b6121fc612539565b6004546001600160a01b031633146122425760405162461bcd60e51b81526020600482015260096024820152682737ba1030b236b4b760b91b6044820152606401610a40565b600f80546000909155600454612261906001600160a01b031682612593565b6040518181527f9870c8023baa016ac002ddfa7cdad341155acddddee3032c07d4baa4947ae64390602001610a94565b61229961272a565b6005546001600160a01b031633146122f35760405162461bcd60e51b815260206004820152600c60248201527f4e6f74206f70657261746f7200000000000000000000000000000000000000006044820152606401610a40565b600254600160a81b900460ff166123725760405162461bcd60e51b815260206004820152603160248201527f43616e206f6e6c792072756e2061667465722067656e6573697353746172745260448201527f6f756e64206973207472696767657265640000000000000000000000000000006064820152608401610a40565b600254600160a01b900460ff16156123f25760405162461bcd60e51b815260206004820152602260248201527f43616e206f6e6c792072756e2067656e657369734c6f636b526f756e64206f6e60448201527f63650000000000000000000000000000000000000000000000000000000000006064820152608401610a40565b6000806123fd612bf3565b915091508169ffffffffffffffffffff16600c8190555061242d600b548369ffffffffffffffffffff1683612d9f565b600b5461243b906001613e47565b600b81905561244990612784565b5050600280547fffffffffffffffffff00ff00ffffffffffffffffffffffffffffffffffffffff16600160a01b179055565b6012602052816000526040600020818154811061249757600080fd5b90600052602060002001600091509150505481565b6124b4612a5e565b6001600160a01b0381166125305760405162461bcd60e51b815260206004820152602660248201527f4f776e61626c653a206e6577206f776e657220697320746865207a65726f206160448201527f64647265737300000000000000000000000000000000000000000000000000006064820152608401610a40565b6110b581612ab8565b6002600154141561258c5760405162461bcd60e51b815260206004820152601f60248201527f5265656e7472616e637947756172643a207265656e7472616e742063616c6c006044820152606401610a40565b6002600155565b6000826001600160a01b03168260405160006040518083038185875af1925050503d80600081146125e0576040519150601f19603f3d011682016040523d82523d6000602084013e6125e5565b606091505b505090508061265c5760405162461bcd60e51b815260206004820152602360248201527f5472616e7366657248656c7065723a20424e425f5452414e534645525f46414960448201527f4c454400000000000000000000000000000000000000000000000000000000006064820152608401610a40565b505050565b600054600160a01b900460ff16610aa65760405162461bcd60e51b815260206004820152601460248201527f5061757361626c653a206e6f74207061757365640000000000000000000000006044820152606401610a40565b6126c2612661565b600080547fffffffffffffffffffffff00ffffffffffffffffffffffffffffffffffffffff1690557f5db9ee0a495bf2e6ff9c91a7834c1ba4fdd244a5e8aa4e537bd38aeae4b073aa335b6040516001600160a01b03909116815260200160405180910390a1565b600054600160a01b900460ff1615610aa65760405162461bcd60e51b815260206004820152601060248201527f5061757361626c653a20706175736564000000000000000000000000000000006044820152606401610a40565b600081815260116020526040902042600182018190556007546127a691613e47565b6002808301919091556007546127bb91613f27565b6127c59042613e47565b600382015581815560006008820181905560405183917f939f42374aa9bf1d8d8cd56d8a9110cb040cd8dfeae44080c6fcf2645e51b45291a25050565b600080601160006001600b546128189190613ec9565b815260200190815260200160002090508060030154421015801561284c575060065481600301546128499190613e47565b42105b91505090565b600254600160a81b900460ff1680156128745750600254600160a01b900460ff165b61290c5760405162461bcd60e51b815260206004820152604660248201527f43616e206f6e6c792072756e2061667465722067656e6573697353746172745260448201527f6f756e6420616e642067656e657369734c6f636b526f756e642069732074726960648201527f6767657265640000000000000000000000000000000000000000000000000000608482015260a401610a40565b600080612917612bf3565b915091508169ffffffffffffffffffff16600c81905550612947600b548369ffffffffffffffffffff1683612d9f565b61296c6001600b546129599190613ec9565b8369ffffffffffffffffffff1683612faa565b6129836001600b5461297e9190613ec9565b6131ab565b600b54612991906001613e47565b600b819055610dbc90613334565b600081815260116020526040812060010154158015906129cf575060008281526011602052604090206002015415155b80156129eb575060008281526011602052604090206001015442115b8015611753575050600090815260116020526040902060020154421090565b600080805b83811015612a5657612a38858583818110612a2c57612a2c613ef6565b905060200201356134e9565b612a429083613e47565b915080612a4e81613f0c565b915050612a0f565b509392505050565b6000546001600160a01b03163314610aa65760405162461bcd60e51b815260206004820181905260248201527f4f776e61626c653a2063616c6c6572206973206e6f7420746865206f776e65726044820152606401610a40565b600080546001600160a01b0383811673ffffffffffffffffffffffffffffffffffffffff19831681178455604051919092169283917f8be0079c531659141344cd1fd0a4f28419497f9722a3daafe3b4186f6b6457e09190a35050565b612b1d61272a565b600080547fffffffffffffffffffffff00ffffffffffffffffffffffffffffffffffffffff16600160a01b1790557f62e78cea01bee320cd4e420270b5ea74000d11b0c9f74754ebdbfc544b05a25861270d3390565b604080516001600160a01b038416602482015260448082018490528251808303909101815260649091019091526020810180517bffffffffffffffffffffffffffffffffffffffffffffffffffffffff167fa9059cbb0000000000000000000000000000000000000000000000000000000017905261265c90849061363f565b6000806000600d5442612c069190613e47565b90506000806000600260009054906101000a90046001600160a01b03166001600160a01b031663feaf968c6040518163ffffffff1660e01b815260040160a06040518083038186803b158015612c5b57600080fd5b505afa158015612c6f573d6000803e3d6000fd5b505050506040513d601f19601f82011682018060405250810190612c939190613e79565b509350509250925083811115612d115760405162461bcd60e51b815260206004820152602e60248201527f4f7261636c6520757064617465206578636565646564206d61782074696d657360448201527f74616d7020616c6c6f77616e63650000000000000000000000000000000000006064820152608401610a40565b600c548369ffffffffffffffffffff1611612d945760405162461bcd60e51b815260206004820152603d60248201527f4f7261636c652075706461746520726f756e644964206d757374206265206c6160448201527f72676572207468616e206f7261636c654c6174657374526f756e6449640000006064820152608401610a40565b509094909350915050565b600083815260116020526040902060010154612e235760405162461bcd60e51b815260206004820152602b60248201527f43616e206f6e6c79206c6f636b20726f756e6420616674657220726f756e642060448201527f68617320737461727465640000000000000000000000000000000000000000006064820152608401610a40565b600083815260116020526040902060020154421015612eaa5760405162461bcd60e51b815260206004820152602760248201527f43616e206f6e6c79206c6f636b20726f756e64206166746572206c6f636b546960448201527f6d657374616d70000000000000000000000000000000000000000000000000006064820152608401610a40565b600654600084815260116020526040902060020154612ec99190613e47565b421115612f3e5760405162461bcd60e51b815260206004820152602860248201527f43616e206f6e6c79206c6f636b20726f756e642077697468696e20627566666560448201527f725365636f6e64730000000000000000000000000000000000000000000000006064820152608401610a40565b6000838152601160205260409020600754612f599042613e47565b60038201556004810182905560068101839055604051828152839085907f482e76a65b448a42deef26e99e58fb20c85e26f075defff8df6aa80459b39006906020015b60405180910390a350505050565b60008381526011602052604090206002015461302e5760405162461bcd60e51b815260206004820152602960248201527f43616e206f6e6c7920656e6420726f756e6420616674657220726f756e64206860448201527f6173206c6f636b656400000000000000000000000000000000000000000000006064820152608401610a40565b6000838152601160205260409020600301544210156130b55760405162461bcd60e51b815260206004820152602760248201527f43616e206f6e6c7920656e6420726f756e6420616674657220636c6f7365546960448201527f6d657374616d70000000000000000000000000000000000000000000000000006064820152608401610a40565b6006546000848152601160205260409020600301546130d49190613e47565b4211156131495760405162461bcd60e51b815260206004820152602760248201527f43616e206f6e6c7920656e6420726f756e642077697468696e2062756666657260448201527f5365636f6e6473000000000000000000000000000000000000000000000000006064820152608401610a40565b600083815260116020526040908190206005810183905560078101849055600d8101805460ff191660011790559051839085907fb6ff1fe915db84788cbbbc017f0d2bef9485fad9fd0bd8ce9340fde0d8410dd890612f9c9086815260200190565b6000818152601160205260409020600b01541580156131d957506000818152601160205260409020600c0154155b6132255760405162461bcd60e51b815260206004820152601260248201527f526577617264732063616c63756c6174656400000000000000000000000000006044820152606401610a40565b600081815260116020526040812060048101546005820154919291829182911315613289578360090154925061271060095485600801546132669190613f27565b6132709190613f46565b91508184600801546132829190613ec9565b90506132c2565b8360040154846005015412156132b55783600a0154925061271060095485600801546132669190613f27565b5050506008810154600090815b600b8401839055600c8401819055600a80548391906000906132e5908490613e47565b9091555050604080518481526020810183905290810183905285907f6dfdfcb09c8804d0058826cd2539f1acfbe3cb887c9be03d928035bce0f1a58d9060600160405180910390a25050505050565b600254600160a81b900460ff166133b35760405162461bcd60e51b815260206004820152603160248201527f43616e206f6e6c792072756e2061667465722067656e6573697353746172745260448201527f6f756e64206973207472696767657265640000000000000000000000000000006064820152608401610a40565b601160006133c2600284613ec9565b8152602001908152602001600020600301546000141561344a5760405162461bcd60e51b815260206004820152602e60248201527f43616e206f6e6c7920737461727420726f756e6420616674657220726f756e6460448201527f206e2d322068617320656e6465640000000000000000000000000000000000006064820152608401610a40565b60116000613459600284613ec9565b8152602001908152602001600020600301544210156134e05760405162461bcd60e51b815260206004820152603760248201527f43616e206f6e6c79207374617274206e657720726f756e64206166746572207260448201527f6f756e64206e2d3220636c6f736554696d657374616d700000000000000000006064820152608401610a40565b6110b581612784565b6000818152601160205260408120600101546135475760405162461bcd60e51b815260206004820152601560248201527f526f756e6420686173206e6f74207374617274656400000000000000000000006044820152606401610a40565b60008281526011602052604090206003015442116135a75760405162461bcd60e51b815260206004820152601360248201527f526f756e6420686173206e6f7420656e646564000000000000000000000000006044820152606401610a40565b6000828152601160205260408120600d015460ff16156135d1576135ca83613727565b90506135dd565b6135da836138a9565b90505b60008381526010602090815260408083203380855290835292819020600201805460ff19166001179055518381528592917f34fcbac0073d7c3d388e51312faf357774904998eeb8fca628b9e6f65ee1cbf7910160405180910390a392915050565b6000613694826040518060400160405280602081526020017f5361666545524332303a206c6f772d6c6576656c2063616c6c206661696c6564815250856001600160a01b03166139229092919063ffffffff16565b90508051600014806136b55750808060200190518101906136b59190613f68565b61265c5760405162461bcd60e51b815260206004820152602a60248201527f5361666545524332303a204552433230206f7065726174696f6e20646964206e60448201527f6f742073756363656564000000000000000000000000000000000000000000006064820152608401610a40565b60006137338233611b67565b61377f5760405162461bcd60e51b815260206004820152601660248201527f4e6f7420656c696769626c6520666f7220636c61696d000000000000000000006044820152606401610a40565b600082815260116020908152604080832081516101c08101835281548152600180830154828601526002830154828501526003830154606083015260048301546080830152600583015460a0830152600683015460c0830152600783015460e083015260088301546101008301526009830154610120830152600a830154610140830152600b8301546101608301819052600c8401546101808401819052600d9094015460ff1615156101a08401528887526010865284872033885290955292852090920154919392916138539190613f27565b61385d9190613f46565b90506000612710600e54836138729190613f27565b61387c9190613f46565b905080600f60008282546138909190613e47565b909155506138a090508183613ec9565b95945050505050565b60006138b582336115e9565b6139015760405162461bcd60e51b815260206004820152601760248201527f4e6f7420656c696769626c6520666f7220726566756e640000000000000000006044820152606401610a40565b50600090815260106020908152604080832033845290915290206001015490565b60606139318484600085613939565b949350505050565b6060824710156139b15760405162461bcd60e51b815260206004820152602660248201527f416464726573733a20696e73756666696369656e742062616c616e636520666f60448201527f722063616c6c00000000000000000000000000000000000000000000000000006064820152608401610a40565b600080866001600160a01b031685876040516139cd9190613f8a565b60006040518083038185875af1925050503d8060008114613a0a576040519150601f19603f3d011682016040523d82523d6000602084013e613a0f565b606091505b5091509150613a2087838387613a2b565b979650505050505050565b60608315613a97578251613a90576001600160a01b0385163b613a905760405162461bcd60e51b815260206004820152601d60248201527f416464726573733a2063616c6c20746f206e6f6e2d636f6e74726163740000006044820152606401610a40565b5081613931565b6139318383815115613aac5781518083602001fd5b8060405162461bcd60e51b8152600401610a409190613fa6565b600060208284031215613ad857600080fd5b5035919050565b80356001600160a01b0381168114613af657600080fd5b919050565b600060208284031215613b0d57600080fd5b613b1682613adf565b9392505050565b60008060208385031215613b3057600080fd5b823567ffffffffffffffff80821115613b4857600080fd5b818501915085601f830112613b5c57600080fd5b813581811115613b6b57600080fd5b866020828501011115613b7d57600080fd5b60209290920196919550909350505050565b60008060208385031215613ba257600080fd5b823567ffffffffffffffff80821115613bba57600080fd5b818501915085601f830112613bce57600080fd5b813581811115613bdd57600080fd5b8660208260051b8501011115613b7d57600080fd5b60005b83811015613c0d578181015183820152602001613bf5565b83811115613c1c576000848401525b50505050565b60008151808452613c3a816020860160208601613bf2565b601f017fffffffffffffffffffffffffffffffffffffffffffffffffffffffffffffffe0169290920160200192915050565b82151581526040602082015260006139316040830184613c22565b60008060408385031215613c9a57600080fd5b82359150613caa60208401613adf565b90509250929050565b634e487b7160e01b600052602160045260246000fd5b60028110613ce757634e487b7160e01b600052602160045260246000fd5b9052565b60608101613cf98286613cc9565b8360208301528215156040830152949350505050565b60008060408385031215613d2257600080fd5b50508035926020909101359150565b600080600060608486031215613d4657600080fd5b613d4f84613adf565b95602085013595506040909401359392505050565b60608082528451828201819052600091906020906080850190828901855b82811015613d9e57815184529284019290840190600101613d82565b5050508481038286015286518082528783019183019060005b81811015613df0578351613dcc848251613cc9565b80860151848701526040908101511515908401529284019291850191600101613db7565b505080945050505050826040830152949350505050565b60008060408385031215613e1a57600080fd5b613e2383613adf565b946020939093013593505050565b634e487b7160e01b600052601160045260246000fd5b60008219821115613e5a57613e5a613e31565b500190565b805169ffffffffffffffffffff81168114613af657600080fd5b600080600080600060a08688031215613e9157600080fd5b613e9a86613e5f565b9450602086015193506040860151925060608601519150613ebd60808701613e5f565b90509295509295909350565b600082821015613edb57613edb613e31565b500390565b634e487b7160e01b600052604160045260246000fd5b634e487b7160e01b600052603260045260246000fd5b6000600019821415613f2057613f20613e31565b5060010190565b6000816000190483118215151615613f4157613f41613e31565b500290565b600082613f6357634e487b7160e01b600052601260045260246000fd5b500490565b600060208284031215613f7a57600080fd5b81518015158114613b1657600080fd5b60008251613f9c818460208701613bf2565b9190910192915050565b602081526000613b166020830184613c2256fea26469706673582212206c056298cb2f6dd56fd5fddf117b93f98f390cc92f88972b84945b54d47aff3264736f6c63430008090033",
  "linkReferences": {},
  "deployedLinkReferences": {}
}